{
  "contractName": "Lottery",
  "abi": [
    {
      "inputs": [],
      "payable": false,
      "stateMutability": "nonpayable",
      "type": "constructor"
    },
    {
      "anonymous": false,
      "inputs": [
        {
          "indexed": false,
          "internalType": "uint256",
          "name": "index",
          "type": "uint256"
        },
        {
          "indexed": false,
          "internalType": "address",
          "name": "bettor",
          "type": "address"
        },
        {
          "indexed": false,
          "internalType": "uint256",
          "name": "amount",
          "type": "uint256"
        },
        {
          "indexed": false,
          "internalType": "bytes1",
          "name": "challenges",
          "type": "bytes1"
        },
        {
          "indexed": false,
          "internalType": "uint256",
          "name": "answerBlockNumber",
          "type": "uint256"
        }
      ],
      "name": "BET",
      "type": "event"
    },
    {
      "anonymous": false,
      "inputs": [
        {
          "indexed": false,
          "internalType": "uint256",
          "name": "index",
          "type": "uint256"
        },
        {
          "indexed": false,
          "internalType": "address",
          "name": "bettor",
          "type": "address"
        },
        {
          "indexed": false,
          "internalType": "uint256",
          "name": "amount",
          "type": "uint256"
        },
        {
          "indexed": false,
          "internalType": "bytes1",
          "name": "challenges",
          "type": "bytes1"
        },
        {
          "indexed": false,
          "internalType": "bytes1",
          "name": "answer",
          "type": "bytes1"
        },
        {
          "indexed": false,
          "internalType": "uint256",
          "name": "answerBlockNumber",
          "type": "uint256"
        }
      ],
      "name": "DRAW",
      "type": "event"
    },
    {
      "anonymous": false,
      "inputs": [
        {
          "indexed": false,
          "internalType": "uint256",
          "name": "index",
          "type": "uint256"
        },
        {
          "indexed": false,
          "internalType": "address",
          "name": "bettor",
          "type": "address"
        },
        {
          "indexed": false,
          "internalType": "uint256",
          "name": "amount",
          "type": "uint256"
        },
        {
          "indexed": false,
          "internalType": "bytes1",
          "name": "challenges",
          "type": "bytes1"
        },
        {
          "indexed": false,
          "internalType": "bytes1",
          "name": "answer",
          "type": "bytes1"
        },
        {
          "indexed": false,
          "internalType": "uint256",
          "name": "answerBlockNumber",
          "type": "uint256"
        }
      ],
      "name": "FAIL",
      "type": "event"
    },
    {
      "anonymous": false,
      "inputs": [
        {
          "indexed": false,
          "internalType": "uint256",
          "name": "index",
          "type": "uint256"
        },
        {
          "indexed": false,
          "internalType": "address",
          "name": "bettor",
          "type": "address"
        },
        {
          "indexed": false,
          "internalType": "uint256",
          "name": "amount",
          "type": "uint256"
        },
        {
          "indexed": false,
          "internalType": "bytes1",
          "name": "challenges",
          "type": "bytes1"
        },
        {
          "indexed": false,
          "internalType": "uint256",
          "name": "answerBlockNumber",
          "type": "uint256"
        }
      ],
      "name": "REFUND",
      "type": "event"
    },
    {
      "anonymous": false,
      "inputs": [
        {
          "indexed": false,
          "internalType": "uint256",
          "name": "index",
          "type": "uint256"
        },
        {
          "indexed": false,
          "internalType": "address",
          "name": "bettor",
          "type": "address"
        },
        {
          "indexed": false,
          "internalType": "uint256",
          "name": "amount",
          "type": "uint256"
        },
        {
          "indexed": false,
          "internalType": "bytes1",
          "name": "challenges",
          "type": "bytes1"
        },
        {
          "indexed": false,
          "internalType": "bytes1",
          "name": "answer",
          "type": "bytes1"
        },
        {
          "indexed": false,
          "internalType": "uint256",
          "name": "answerBlockNumber",
          "type": "uint256"
        }
      ],
      "name": "WIN",
      "type": "event"
    },
    {
      "constant": true,
      "inputs": [],
      "name": "answerForTest",
      "outputs": [
        {
          "internalType": "bytes32",
          "name": "",
          "type": "bytes32"
        }
      ],
      "payable": false,
      "stateMutability": "view",
      "type": "function"
    },
    {
      "constant": true,
      "inputs": [],
      "name": "owner",
      "outputs": [
        {
          "internalType": "address payable",
          "name": "",
          "type": "address"
        }
      ],
      "payable": false,
      "stateMutability": "view",
      "type": "function"
    },
    {
      "constant": true,
      "inputs": [],
      "name": "getPot",
      "outputs": [
        {
          "internalType": "uint256",
          "name": "pot",
          "type": "uint256"
        }
      ],
      "payable": false,
      "stateMutability": "view",
      "type": "function"
    },
    {
      "constant": false,
      "inputs": [
        {
          "internalType": "bytes1",
          "name": "challenges",
          "type": "bytes1"
        }
      ],
      "name": "betAndDistrubute",
      "outputs": [
        {
          "internalType": "bool",
          "name": "result",
          "type": "bool"
        }
      ],
      "payable": true,
      "stateMutability": "payable",
      "type": "function"
    },
    {
      "constant": false,
      "inputs": [
        {
          "internalType": "bytes1",
          "name": "challenges",
          "type": "bytes1"
        }
      ],
      "name": "bet",
      "outputs": [
        {
          "internalType": "bool",
          "name": "result",
          "type": "bool"
        }
      ],
      "payable": true,
      "stateMutability": "payable",
      "type": "function"
    },
    {
      "constant": false,
      "inputs": [],
      "name": "distribute",
      "outputs": [],
      "payable": false,
      "stateMutability": "nonpayable",
      "type": "function"
    },
    {
      "constant": false,
      "inputs": [
        {
          "internalType": "bytes32",
          "name": "answer",
          "type": "bytes32"
        }
      ],
      "name": "setAnswerForTest",
      "outputs": [
        {
          "internalType": "bool",
          "name": "result",
          "type": "bool"
        }
      ],
      "payable": false,
      "stateMutability": "nonpayable",
      "type": "function"
    },
    {
      "constant": true,
      "inputs": [
        {
          "internalType": "bytes1",
          "name": "challenges",
          "type": "bytes1"
        },
        {
          "internalType": "bytes32",
          "name": "answer",
          "type": "bytes32"
        }
      ],
      "name": "isMatch",
      "outputs": [
        {
          "internalType": "enum Lottery.BettingResult",
          "name": "",
          "type": "uint8"
        }
      ],
      "payable": false,
      "stateMutability": "pure",
      "type": "function"
    },
    {
      "constant": true,
      "inputs": [
        {
          "internalType": "uint256",
          "name": "index",
          "type": "uint256"
        }
      ],
      "name": "getBetInfo",
      "outputs": [
        {
          "internalType": "uint256",
          "name": "answerBlockNumber",
          "type": "uint256"
        },
        {
          "internalType": "address",
          "name": "bettor",
          "type": "address"
        },
        {
          "internalType": "bytes1",
          "name": "challenges",
          "type": "bytes1"
        }
      ],
      "payable": false,
      "stateMutability": "view",
      "type": "function"
    }
  ],
  "bytecode": "0x60806040526000600560006101000a81548160ff02191690831515021790555034801561002b57600080fd5b5033600360006101000a81548173ffffffffffffffffffffffffffffffffffffffff021916908373ffffffffffffffffffffffffffffffffffffffff1602179055506115028061007c6000396000f3fe6080604052600436106100865760003560e01c806384f7e4f01161005957806384f7e4f01461023e5780638da5cb5b1461026957806399a167d7146102c0578063e4fc6b6d14610349578063f4b46f5b1461036057610086565b806335e743eb1461008b578063403c9fa8146100f35780637009fa361461011e57806379141f8014610171575b600080fd5b6100d9600480360360208110156100a157600080fd5b8101908080357effffffffffffffffffffffffffffffffffffffffffffffffffffffffffffff191690602001909291905050506103c8565b604051808215151515815260200191505060405180910390f35b3480156100ff57600080fd5b506101086103e5565b6040518082815260200191505060405180910390f35b34801561012a57600080fd5b506101576004803603602081101561014157600080fd5b81019080803590602001909291905050506103ef565b604051808215151515815260200191505060405180910390f35b34801561017d57600080fd5b506101aa6004803603602081101561019457600080fd5b81019080803590602001909291905050506104a7565b604051808481526020018373ffffffffffffffffffffffffffffffffffffffff1673ffffffffffffffffffffffffffffffffffffffff168152602001827effffffffffffffffffffffffffffffffffffffffffffffffffffffffffffff19167effffffffffffffffffffffffffffffffffffffffffffffffffffffffffffff19168152602001935050505060405180910390f35b34801561024a57600080fd5b506102536105ac565b6040518082815260200191505060405180910390f35b34801561027557600080fd5b5061027e6105b2565b604051808273ffffffffffffffffffffffffffffffffffffffff1673ffffffffffffffffffffffffffffffffffffffff16815260200191505060405180910390f35b3480156102cc57600080fd5b50610325600480360360408110156102e357600080fd5b8101908080357effffffffffffffffffffffffffffffffffffffffffffffffffffffffffffff19169060200190929190803590602001909291905050506105d8565b6040518082600281111561033557fe5b60ff16815260200191505060405180910390f35b34801561035557600080fd5b5061035e6108b3565b005b6103ae6004803603602081101561037657600080fd5b8101908080357effffffffffffffffffffffffffffffffffffffffffffffffffffffffffffff19169060200190929190505050610f8f565b604051808215151515815260200191505060405180910390f35b60006103d382610f8f565b506103dc6108b3565b60019050919050565b6000600454905090565b6000600360009054906101000a900473ffffffffffffffffffffffffffffffffffffffff1673ffffffffffffffffffffffffffffffffffffffff163373ffffffffffffffffffffffffffffffffffffffff1614610497576040517f08c379a000000000000000000000000000000000000000000000000000000000815260040180806020018281038252602b8152602001806114a3602b913960400191505060405180910390fd5b8160068190555060019050919050565b60008060006104b4611449565b60026000868152602001908152602001600020604051806060016040529081600082015481526020016001820160009054906101000a900473ffffffffffffffffffffffffffffffffffffffff1673ffffffffffffffffffffffffffffffffffffffff1673ffffffffffffffffffffffffffffffffffffffff1681526020016001820160149054906101000a900460f81b7effffffffffffffffffffffffffffffffffffffffffffffffffffffffffffff19167effffffffffffffffffffffffffffffffffffffffffffffffffffffffffffff1916815250509050806000015193508060200151925080604001519150509193909250565b60065481565b600360009054906101000a900473ffffffffffffffffffffffffffffffffffffffff1681565b60008083905060008490506000846000602081106105f257fe5b1a60f81b905060008560006020811061060757fe5b1a60f81b90506004847effffffffffffffffffffffffffffffffffffffffffffffffffffffffffffff1916901c93506004847effffffffffffffffffffffffffffffffffffffffffffffffffffffffffffff1916901b93506004827effffffffffffffffffffffffffffffffffffffffffffffffffffffffffffff1916901c91506004827effffffffffffffffffffffffffffffffffffffffffffffffffffffffffffff1916901b91506004837effffffffffffffffffffffffffffffffffffffffffffffffffffffffffffff1916901b92506004837effffffffffffffffffffffffffffffffffffffffffffffffffffffffffffff1916901c92506004817effffffffffffffffffffffffffffffffffffffffffffffffffffffffffffff1916901b90506004817effffffffffffffffffffffffffffffffffffffffffffffffffffffffffffff1916901c9050837effffffffffffffffffffffffffffffffffffffffffffffffffffffffffffff1916827effffffffffffffffffffffffffffffffffffffffffffffffffffffffffffff19161480156107eb5750827effffffffffffffffffffffffffffffffffffffffffffffffffffffffffffff1916817effffffffffffffffffffffffffffffffffffffffffffffffffffffffffffff1916145b156107fd5760019450505050506108ad565b837effffffffffffffffffffffffffffffffffffffffffffffffffffffffffffff1916827effffffffffffffffffffffffffffffffffffffffffffffffffffffffffffff191614806108925750827effffffffffffffffffffffffffffffffffffffffffffffffffffffffffffff1916817effffffffffffffffffffffffffffffffffffffffffffffffffffffffffffff1916145b156108a45760029450505050506108ad565b60009450505050505b92915050565b6000806108be611449565b600060015492505b600054831015610f825760026000848152602001908152602001600020604051806060016040529081600082015481526020016001820160009054906101000a900473ffffffffffffffffffffffffffffffffffffffff1673ffffffffffffffffffffffffffffffffffffffff1673ffffffffffffffffffffffffffffffffffffffff1681526020016001820160149054906101000a900460f81b7effffffffffffffffffffffffffffffffffffffffffffffffffffffffffffff19167effffffffffffffffffffffffffffffffffffffffffffffffffffffffffffff191681525050915060006109ba8360000151611160565b9050600060028111156109c957fe5b8160028111156109d557fe5b1415610e3c5760006109ea84600001516111b0565b90506109fa8460400151826105d8565b925060016002811115610a0957fe5b836002811115610a1557fe5b1415610b6e57610a3484602001516611c37937e08000600454016111d8565b955060006004819055507f8219079e2d6c1192fb0ff7f78e6faaf5528ad6687e69749205d87bd4b156912b85856020015188876040015185600060208110610a7857fe5b1a60f81b8960000151604051808781526020018673ffffffffffffffffffffffffffffffffffffffff1673ffffffffffffffffffffffffffffffffffffffff168152602001858152602001847effffffffffffffffffffffffffffffffffffffffffffffffffffffffffffff19167effffffffffffffffffffffffffffffffffffffffffffffffffffffffffffff19168152602001837effffffffffffffffffffffffffffffffffffffffffffffffffffffffffffff19167effffffffffffffffffffffffffffffffffffffffffffffffffffffffffffff19168152602001828152602001965050505050505060405180910390a15b60006002811115610b7b57fe5b836002811115610b8757fe5b1415610cd5576611c37937e080006004600082825401925050819055507f3b19d607433249d2ebc766ae82ca3848e9c064f1febb5147bc6e5b21d0adebc58585602001516000876040015185600060208110610bdf57fe5b1a60f81b8960000151604051808781526020018673ffffffffffffffffffffffffffffffffffffffff1673ffffffffffffffffffffffffffffffffffffffff168152602001858152602001847effffffffffffffffffffffffffffffffffffffffffffffffffffffffffffff19167effffffffffffffffffffffffffffffffffffffffffffffffffffffffffffff19168152602001837effffffffffffffffffffffffffffffffffffffffffffffffffffffffffffff19167effffffffffffffffffffffffffffffffffffffffffffffffffffffffffffff19168152602001828152602001965050505050505060405180910390a15b600280811115610ce157fe5b836002811115610ced57fe5b1415610e3a57610d0884602001516611c37937e080006111d8565b95507f72ec2e949e4fad9380f9d5db3e2ed0e71cf22c51d8d66424508bdc761a3f4b0e85856020015188876040015185600060208110610d4457fe5b1a60f81b8960000151604051808781526020018673ffffffffffffffffffffffffffffffffffffffff1673ffffffffffffffffffffffffffffffffffffffff168152602001858152602001847effffffffffffffffffffffffffffffffffffffffffffffffffffffffffffff19167effffffffffffffffffffffffffffffffffffffffffffffffffffffffffffff19168152602001837effffffffffffffffffffffffffffffffffffffffffffffffffffffffffffff19167effffffffffffffffffffffffffffffffffffffffffffffffffffffffffffff19168152602001828152602001965050505050505060405180910390a15b505b60016002811115610e4957fe5b816002811115610e5557fe5b1415610e615750610f82565b600280811115610e6d57fe5b816002811115610e7957fe5b1415610f6a57610e9483602001516611c37937e080006111d8565b94507f59c0185881271a0f53d43e6ab9310091408f9e0ff9ae2512613de800f26b8de48484602001518786604001518760000151604051808681526020018573ffffffffffffffffffffffffffffffffffffffff1673ffffffffffffffffffffffffffffffffffffffff168152602001848152602001837effffffffffffffffffffffffffffffffffffffffffffffffffffffffffffff19167effffffffffffffffffffffffffffffffffffffffffffffffffffffffffffff191681526020018281526020019550505050505060405180910390a15b610f73846112a1565b505082806001019350506108c6565b8260018190555050505050565b60006611c37937e08000341461100d576040517f08c379a000000000000000000000000000000000000000000000000000000000815260040180806020018281038252600e8152602001807f4e6f7420656e756f67682045544800000000000000000000000000000000000081525060200191505060405180910390fd5b61101682611305565b611088576040517f08c379a000000000000000000000000000000000000000000000000000000000815260040180806020018281038252601a8152602001807f4661696c20746f206164642061206e65772042657420496e666f00000000000081525060200191505060405180910390fd5b7f100791de9f40bf2d56ffa6dc5597d2fd0b2703ea70bc7548cd74c04f5d215ab760016000540333348560034301604051808681526020018573ffffffffffffffffffffffffffffffffffffffff1673ffffffffffffffffffffffffffffffffffffffff168152602001848152602001837effffffffffffffffffffffffffffffffffffffffffffffffffffffffffffff19167effffffffffffffffffffffffffffffffffffffffffffffffffffffffffffff191681526020018281526020019550505050505060405180910390a160019050919050565b600081431180156111745750816101000143105b1561118257600090506111ab565b81431161119257600190506111ab565b610100820143106111a657600290506111ab565b600290505b919050565b6000600560009054906101000a900460ff166111ce576006546111d1565b81405b9050919050565b60008060009050600081840390508473ffffffffffffffffffffffffffffffffffffffff166108fc829081150290604051600060405180830381858888f1935050505015801561122c573d6000803e3d6000fd5b50600360009054906101000a900473ffffffffffffffffffffffffffffffffffffffff1673ffffffffffffffffffffffffffffffffffffffff166108fc839081150290604051600060405180830381858888f19350505050158015611295573d6000803e3d6000fd5b50809250505092915050565b6000600260008381526020019081526020016000206000808201600090556001820160006101000a81549073ffffffffffffffffffffffffffffffffffffffff02191690556001820160146101000a81549060ff0219169055505060019050919050565b600061130f611449565b33816020019073ffffffffffffffffffffffffffffffffffffffff16908173ffffffffffffffffffffffffffffffffffffffff1681525050600343018160000181815250508281604001907effffffffffffffffffffffffffffffffffffffffffffffffffffffffffffff191690817effffffffffffffffffffffffffffffffffffffffffffffffffffffffffffff1916815250508060026000805481526020019081526020016000206000820151816000015560208201518160010160006101000a81548173ffffffffffffffffffffffffffffffffffffffff021916908373ffffffffffffffffffffffffffffffffffffffff16021790555060408201518160010160146101000a81548160ff021916908360f81c021790555090505060008081548092919060010191905055506001915050919050565b604051806060016040528060008152602001600073ffffffffffffffffffffffffffffffffffffffff16815260200160007effffffffffffffffffffffffffffffffffffffffffffffffffffffffffffff19168152509056fe4f6e6c79206f776e65722063616e207365742074686520616e7377657220666f722074657374206d6f6465a265627a7a723158207ad38e48ab7a2c6859236f2e1bc3df1aabf2994312d61201310188a9598c876864736f6c63430005100032",
  "source": "pragma solidity >=0.4.22 <0.9.0;\r\n\r\ncontract Lottery{\r\n    struct BetInfo {\r\n        uint256 answerBlockNumber;\r\n        address payable bettor;\r\n        byte challenges; //0xab\r\n        \r\n    }\r\n    uint256 private _tail;\r\n    uint256 private _head;\r\n    mapping (uint256 => BetInfo) private _bets;\r\n    address payable public owner;\r\n    uint256 constant internal BLOCK_LIMIT = 256;\r\n    uint256 constant internal BET_BLOCK_INTERVAL = 3;\r\n    uint256 constant internal BET_AMOUNT = 5 * 10 ** 15;\r\n    uint256 private _pot;\r\n\r\n    bool private mode = false; // false : test mode , true : real BlockHash\r\n    bytes32 public answerForTest;\r\n\r\n    enum BlockStatus { Checkable,NotRevealed, BlockPassed }\r\n    enum BettingResult {fail, win, draw}\r\n    event BET(uint256 index, address bettor, uint256 amount, byte challenges, uint256 answerBlockNumber);\r\n    event WIN(uint256 index, address bettor, uint256 amount, byte challenges, byte answer, uint256 answerBlockNumber);\r\n    event FAIL(uint256 index, address bettor, uint256 amount, byte challenges, byte answer, uint256 answerBlockNumber);\r\n    event DRAW(uint256 index, address bettor, uint256 amount, byte challenges, byte answer, uint256 answerBlockNumber);\r\n    event REFUND(uint256 index, address bettor, uint256 amount, byte challenges, uint256 answerBlockNumber);\r\n\r\n    constructor() public{\r\n        owner = msg.sender;\r\n\r\n    }\r\n\r\n\r\n    function getPot() public view returns (uint256 pot) {\r\n        return  _pot;\r\n\r\n    }\r\n    /**\r\n    * @dev 배팅과 정답 체크를 한다. 유저는 0.005ETH를 보내야하고 , 배팅은 1byte 글자를 보낸다.\r\n    * 뷰에 저장된 배팅정보는 distrubute 함수에서 해결된다.\r\n    * @param challenges 유저가 배팅하는 글자\r\n    * @return 함수가 잘 수행되었는지 확인하는 bool 값    \r\n     */\r\n    function betAndDistrubute(byte challenges) public payable returns(bool result){\r\n        bet(challenges);\r\n        \r\n        distribute();\r\n\r\n        return true;\r\n    }\r\n    /**\r\n    * @dev 배팅을 한다. 유저는 0.005 ETH 를 보내야하고 배팅을 1byte 글자를 보낸다.\r\n    * 뷰에 저장된 배팅정보는 distrubute 함수에서 해결된다.\r\n    * @param challenges 유저가 배팅하는 글자\r\n    * @return 함수가 잘 수행되었는지 확인하는 bool 값    \r\n     */\r\n    function bet(byte challenges) public payable returns (bool result){\r\n\r\n        // check Money proper ether is sent\r\n        require(msg.value == BET_AMOUNT,\"Not enuogh ETH\");\r\n\r\n        // push bet to the queue\r\n        require(pushBet(challenges),\"Fail to add a new Bet Info\");\r\n\r\n        // event log\r\n        emit BET(_tail -1,msg.sender,msg.value,challenges,block.number + BET_BLOCK_INTERVAL);\r\n\r\n\r\n        return true;\r\n\r\n\r\n    }\r\n        //save the bet to the queue\r\n\r\n        \r\n    /**\r\n    * @dev 배팅 결과값을 확인하고 팟머니 분배\r\n    * 정답 실패 : 팟머니 누적, 정답맞춤 : 팟머니 획득 , 한 글자 맞춤  : 배팅금액만 획득   \r\n     */\r\n    function distribute() public{\r\n        //head  3 4 5 6 7 8 9 10 tail >>\r\n        uint256 transferAmount;\r\n        uint256 cur;\r\n        BetInfo memory b ;\r\n        BettingResult currentBettingResult;\r\n        for(cur=_head;cur<_tail;cur++){\r\n            b= _bets[cur];\r\n            BlockStatus currentBlockStatus;\r\n\r\n            currentBlockStatus = getBlockStatus(b.answerBlockNumber);\r\n            // checkable : block.number > AnswerBlockNumber && block.number < BLOCK_LIMIT + ANswerBlockNumber 1 \r\n            if(currentBlockStatus == BlockStatus.Checkable){\r\n                bytes32 answerBlockHash = getAnswerBlockHash(b.answerBlockNumber);\r\n                currentBettingResult = isMatch(b.challenges,answerBlockHash);\r\n                // WIN , bettor gets pot\r\n                if(currentBettingResult == BettingResult.win){\r\n                    // transfer pot\r\n                    transferAmount = tranforAfterPayingFee(b.bettor, _pot + BET_AMOUNT);\r\n                    // pot = 0  \r\n                    _pot=0;\r\n                    // emit WIN \r\n                    emit WIN(cur,b.bettor,transferAmount, b.challenges,answerBlockHash[0],b.answerBlockNumber);\r\n                }\r\n                // FAIL ,  bettor's money goes pot\r\n                if(currentBettingResult == BettingResult.fail){\r\n                    // pot = pot + BET_AMOUNT\r\n                    _pot += BET_AMOUNT;\r\n                    emit FAIL(cur,b.bettor,0, b.challenges,answerBlockHash[0],b.answerBlockNumber);\r\n                    //emit fail \r\n\r\n\r\n                }\r\n                // DRAW,   retund bettor' money\r\n                if(currentBettingResult == BettingResult.draw){\r\n                    // transfer only bet AMOUNT\r\n                    transferAmount = tranforAfterPayingFee(b.bettor, BET_AMOUNT);\r\n                    // emit DRAW\r\n                    emit DRAW(cur,b.bettor,transferAmount, b.challenges,answerBlockHash[0],b.answerBlockNumber);\r\n\r\n                }\r\n            }\r\n\r\n            // No Revealed: block.number <=AnswerBlockNumber  2 \r\n            if(currentBlockStatus == BlockStatus.NotRevealed){\r\n              break;\r\n            }\r\n\r\n            // Block Limit Passed : block.number >= AnswerBlockNumber + BLOCK_LIMIT  3    \r\n            if(currentBlockStatus == BlockStatus.BlockPassed){\r\n                // refund\r\n                transferAmount = tranforAfterPayingFee(b.bettor, BET_AMOUNT);\r\n                // emit refund\r\n                emit REFUND(cur,b.bettor,transferAmount, b.challenges,b.answerBlockNumber);\r\n            }\r\n             popBet(cur);\r\n             // check ther answer\r\n        }\r\n        _head = cur;\r\n\r\n    }\r\n    function tranforAfterPayingFee(address payable addr , uint256 amount) internal returns (uint256){\r\n        \r\n    //    uint256 fee=  amount / 100 ;\r\n        uint256 fee=  0;\r\n        uint256 amountWithoutFee = amount - fee ;\r\n        // transfer to addr\r\n        addr.transfer(amountWithoutFee);\r\n        //transfer to owner\r\n        owner.transfer(fee);\r\n\r\n        // call, send, transfer  돈 전송 방식\r\n        return amountWithoutFee;\r\n    }\r\n    function setAnswerForTest(bytes32 answer)public  returns (bool result){\r\n        require(msg.sender == owner , \"Only owner can set the answer for test mode\");\r\n        answerForTest = answer;\r\n        return true;\r\n    }\r\n    function getAnswerBlockHash(uint256 answerBlockNumber) internal view returns (bytes32 answer){\r\n        return mode ? blockhash(answerBlockNumber) : answerForTest;\r\n\r\n    }\r\n    /**\r\n    * @dev 배팅글자와 정답 확인\r\n    * @param challenges; 배팅 글자\r\n    * @param answer 블락해쉬\r\n    * @return 정답결과        \r\n     */\r\n    function isMatch(byte challenges, bytes32 answer) public pure returns (BettingResult){\r\n        //challenges 0xab\r\n        // answer 0xab.........ff 32 bytes\r\n        \r\n        byte c1 = challenges;\r\n        byte c2 = challenges;\r\n\r\n        byte a1 = answer[0];\r\n        byte a2 = answer[0];\r\n\r\n        // Get first number\r\n        c1 = c1 >> 4; //oxab ->0x0a\r\n        c1 = c1 << 4; //ox0a ->0xa0\r\n\r\n        a1 = a1 >>4;\r\n        a1 = a1 <<4;\r\n\r\n        // Get Second Number;\r\n        c2 = c2<<4; // 0xab -> 0xb0\r\n        c2 = c2>>4; // 0xb0 -> 0x0b\r\n\r\n        a2 = a2<<4;\r\n        a2 = a2>>4;\r\n\r\n        if(a1 == c1 && a2 == c2){\r\n            return BettingResult.win;\r\n\r\n        }\r\n        if(a1 == c1 || a2 == c2){\r\n            return BettingResult.draw;\r\n\r\n        }\r\n        return BettingResult.fail;\r\n\r\n    }\r\n    function getBlockStatus(uint256 answerBlockNumber ) internal view returns (BlockStatus){\r\n        if(block.number > answerBlockNumber && block.number < BLOCK_LIMIT + answerBlockNumber){\r\n            return BlockStatus.Checkable;\r\n        }\r\n        if( block.number <= answerBlockNumber){\r\n            return BlockStatus.NotRevealed;\r\n        }\r\n        if(block.number >= answerBlockNumber + BLOCK_LIMIT){\r\n            return BlockStatus.BlockPassed;\r\n        }\r\n        return BlockStatus.BlockPassed;\r\n    }\r\n    \r\n    function getBetInfo(uint256 index) public view returns (uint answerBlockNumber, address bettor, byte challenges){\r\n        BetInfo memory b= _bets[index];\r\n        answerBlockNumber = b.answerBlockNumber;\r\n        bettor =  b.bettor;\r\n        challenges = b.challenges;\r\n\r\n    }\r\n    \r\n\r\n    function pushBet(byte challenges) internal returns (bool){\r\n        BetInfo memory b;\r\n        b.bettor = msg.sender;\r\n        b.answerBlockNumber = block.number + BET_BLOCK_INTERVAL;\r\n        b.challenges = challenges;\r\n\r\n        _bets[_tail] = b;\r\n        _tail++;\r\n\r\n        return true;\r\n\r\n    }\r\n\r\n    function popBet(uint256 index) internal returns (bool){\r\n        delete _bets[index];\r\n        return true;\r\n    }\r\n}",
  "sourcePath": "C:/Users/LeeSeokwoon/Desktop/dapp_study/contracts/Lottery.sol",
  "compiler": {
    "name": "solc",
    "version": "0.5.16+commit.9c3226ce.Emscripten.clang"
  },
  "schemaVersion": "3.3.4",
  "updatedAt": "2021-04-03T11:03:27.934Z",
  "devdoc": {
    "methods": {
      "bet(bytes1)": {
        "details": "배팅을 한다. 유저는 0.005 ETH 를 보내야하고 배팅을 1byte 글자를 보낸다. 뷰에 저장된 배팅정보는 distrubute 함수에서 해결된다.",
        "params": {
          "challenges": "유저가 배팅하는 글자"
        },
        "return": "함수가 잘 수행되었는지 확인하는 bool 값    "
      },
      "betAndDistrubute(bytes1)": {
        "details": "배팅과 정답 체크를 한다. 유저는 0.005ETH를 보내야하고 , 배팅은 1byte 글자를 보낸다. 뷰에 저장된 배팅정보는 distrubute 함수에서 해결된다.",
        "params": {
          "challenges": "유저가 배팅하는 글자"
        },
        "return": "함수가 잘 수행되었는지 확인하는 bool 값    "
      },
      "distribute()": {
        "details": "배팅 결과값을 확인하고 팟머니 분배 정답 실패 : 팟머니 누적, 정답맞춤 : 팟머니 획득 , 한 글자 맞춤  : 배팅금액만 획득   "
      },
      "isMatch(bytes1,bytes32)": {
        "details": "배팅글자와 정답 확인",
        "params": {
          "answer": "블락해쉬",
          "challenges": "; 배팅 글자"
        },
        "return": "정답결과        "
      }
    }
  },
  "userdoc": {
    "methods": {}
  }
}