{
  "contractName": "Lottery",
  "abi": [
    {
      "inputs": [],
      "payable": false,
      "stateMutability": "nonpayable",
      "type": "constructor"
    },
    {
      "anonymous": false,
      "inputs": [
        {
          "indexed": false,
          "internalType": "uint256",
          "name": "index",
          "type": "uint256"
        },
        {
          "indexed": false,
          "internalType": "address",
          "name": "bettor",
          "type": "address"
        },
        {
          "indexed": false,
          "internalType": "uint256",
          "name": "amount",
          "type": "uint256"
        },
        {
          "indexed": false,
          "internalType": "bytes1",
          "name": "challenges",
          "type": "bytes1"
        },
        {
          "indexed": false,
          "internalType": "uint256",
          "name": "answerBlockNumber",
          "type": "uint256"
        }
      ],
      "name": "BET",
      "type": "event"
    },
    {
      "anonymous": false,
      "inputs": [
        {
          "indexed": false,
          "internalType": "uint256",
          "name": "index",
          "type": "uint256"
        },
        {
          "indexed": false,
          "internalType": "address",
          "name": "bettor",
          "type": "address"
        },
        {
          "indexed": false,
          "internalType": "uint256",
          "name": "amount",
          "type": "uint256"
        },
        {
          "indexed": false,
          "internalType": "bytes1",
          "name": "challenges",
          "type": "bytes1"
        },
        {
          "indexed": false,
          "internalType": "bytes1",
          "name": "answer",
          "type": "bytes1"
        },
        {
          "indexed": false,
          "internalType": "uint256",
          "name": "answerBlockNumber",
          "type": "uint256"
        }
      ],
      "name": "DRAW",
      "type": "event"
    },
    {
      "anonymous": false,
      "inputs": [
        {
          "indexed": false,
          "internalType": "uint256",
          "name": "index",
          "type": "uint256"
        },
        {
          "indexed": false,
          "internalType": "address",
          "name": "bettor",
          "type": "address"
        },
        {
          "indexed": false,
          "internalType": "uint256",
          "name": "amount",
          "type": "uint256"
        },
        {
          "indexed": false,
          "internalType": "bytes1",
          "name": "challenges",
          "type": "bytes1"
        },
        {
          "indexed": false,
          "internalType": "bytes1",
          "name": "answer",
          "type": "bytes1"
        },
        {
          "indexed": false,
          "internalType": "uint256",
          "name": "answerBlockNumber",
          "type": "uint256"
        }
      ],
      "name": "FAIL",
      "type": "event"
    },
    {
      "anonymous": false,
      "inputs": [
        {
          "indexed": false,
          "internalType": "uint256",
          "name": "index",
          "type": "uint256"
        },
        {
          "indexed": false,
          "internalType": "address",
          "name": "bettor",
          "type": "address"
        },
        {
          "indexed": false,
          "internalType": "uint256",
          "name": "amount",
          "type": "uint256"
        },
        {
          "indexed": false,
          "internalType": "bytes1",
          "name": "challenges",
          "type": "bytes1"
        },
        {
          "indexed": false,
          "internalType": "uint256",
          "name": "answerBlockNumber",
          "type": "uint256"
        }
      ],
      "name": "REFUND",
      "type": "event"
    },
    {
      "anonymous": false,
      "inputs": [
        {
          "indexed": false,
          "internalType": "uint256",
          "name": "index",
          "type": "uint256"
        },
        {
          "indexed": false,
          "internalType": "address",
          "name": "bettor",
          "type": "address"
        },
        {
          "indexed": false,
          "internalType": "uint256",
          "name": "amount",
          "type": "uint256"
        },
        {
          "indexed": false,
          "internalType": "bytes1",
          "name": "challenges",
          "type": "bytes1"
        },
        {
          "indexed": false,
          "internalType": "bytes1",
          "name": "answer",
          "type": "bytes1"
        },
        {
          "indexed": false,
          "internalType": "uint256",
          "name": "answerBlockNumber",
          "type": "uint256"
        }
      ],
      "name": "WIN",
      "type": "event"
    },
    {
      "constant": true,
      "inputs": [],
      "name": "answerForTest",
      "outputs": [
        {
          "internalType": "bytes32",
          "name": "",
          "type": "bytes32"
        }
      ],
      "payable": false,
      "stateMutability": "view",
      "type": "function"
    },
    {
      "constant": true,
      "inputs": [],
      "name": "owner",
      "outputs": [
        {
          "internalType": "address payable",
          "name": "",
          "type": "address"
        }
      ],
      "payable": false,
      "stateMutability": "view",
      "type": "function"
    },
    {
      "constant": true,
      "inputs": [],
      "name": "getPot",
      "outputs": [
        {
          "internalType": "uint256",
          "name": "pot",
          "type": "uint256"
        }
      ],
      "payable": false,
      "stateMutability": "view",
      "type": "function"
    },
    {
      "constant": false,
      "inputs": [
        {
          "internalType": "bytes1",
          "name": "challenges",
          "type": "bytes1"
        }
      ],
      "name": "bet",
      "outputs": [
        {
          "internalType": "bool",
          "name": "result",
          "type": "bool"
        }
      ],
      "payable": true,
      "stateMutability": "payable",
      "type": "function"
    },
    {
      "constant": false,
      "inputs": [],
      "name": "distribute",
      "outputs": [],
      "payable": false,
      "stateMutability": "nonpayable",
      "type": "function"
    },
    {
      "constant": false,
      "inputs": [
        {
          "internalType": "bytes32",
          "name": "answer",
          "type": "bytes32"
        }
      ],
      "name": "setAnswerForTest",
      "outputs": [
        {
          "internalType": "bool",
          "name": "result",
          "type": "bool"
        }
      ],
      "payable": false,
      "stateMutability": "nonpayable",
      "type": "function"
    },
    {
      "constant": true,
      "inputs": [
        {
          "internalType": "bytes1",
          "name": "challenges",
          "type": "bytes1"
        },
        {
          "internalType": "bytes32",
          "name": "answer",
          "type": "bytes32"
        }
      ],
      "name": "isMatch",
      "outputs": [
        {
          "internalType": "enum Lottery.BettingResult",
          "name": "",
          "type": "uint8"
        }
      ],
      "payable": false,
      "stateMutability": "pure",
      "type": "function"
    },
    {
      "constant": true,
      "inputs": [
        {
          "internalType": "uint256",
          "name": "index",
          "type": "uint256"
        }
      ],
      "name": "getBetInfo",
      "outputs": [
        {
          "internalType": "uint256",
          "name": "answerBlockNumber",
          "type": "uint256"
        },
        {
          "internalType": "address",
          "name": "bettor",
          "type": "address"
        },
        {
          "internalType": "bytes1",
          "name": "challenges",
          "type": "bytes1"
        }
      ],
      "payable": false,
      "stateMutability": "view",
      "type": "function"
    }
  ],
  "bytecode": "0x60806040526000600560006101000a81548160ff02191690831515021790555034801561002b57600080fd5b5033600360006101000a81548173ffffffffffffffffffffffffffffffffffffffff021916908373ffffffffffffffffffffffffffffffffffffffff1602179055506114738061007c6000396000f3fe60806040526004361061007b5760003560e01c80638da5cb5b1161004e5780638da5cb5b146101f657806399a167d71461024d578063e4fc6b6d146102d6578063f4b46f5b146102ed5761007b565b8063403c9fa8146100805780637009fa36146100ab57806379141f80146100fe57806384f7e4f0146101cb575b600080fd5b34801561008c57600080fd5b50610095610355565b6040518082815260200191505060405180910390f35b3480156100b757600080fd5b506100e4600480360360208110156100ce57600080fd5b810190808035906020019092919050505061035f565b604051808215151515815260200191505060405180910390f35b34801561010a57600080fd5b506101376004803603602081101561012157600080fd5b8101908080359060200190929190505050610417565b604051808481526020018373ffffffffffffffffffffffffffffffffffffffff1673ffffffffffffffffffffffffffffffffffffffff168152602001827effffffffffffffffffffffffffffffffffffffffffffffffffffffffffffff19167effffffffffffffffffffffffffffffffffffffffffffffffffffffffffffff19168152602001935050505060405180910390f35b3480156101d757600080fd5b506101e061051c565b6040518082815260200191505060405180910390f35b34801561020257600080fd5b5061020b610522565b604051808273ffffffffffffffffffffffffffffffffffffffff1673ffffffffffffffffffffffffffffffffffffffff16815260200191505060405180910390f35b34801561025957600080fd5b506102b26004803603604081101561027057600080fd5b8101908080357effffffffffffffffffffffffffffffffffffffffffffffffffffffffffffff1916906020019092919080359060200190929190505050610548565b604051808260028111156102c257fe5b60ff16815260200191505060405180910390f35b3480156102e257600080fd5b506102eb610823565b005b61033b6004803603602081101561030357600080fd5b8101908080357effffffffffffffffffffffffffffffffffffffffffffffffffffffffffffff19169060200190929190505050610f00565b604051808215151515815260200191505060405180910390f35b6000600454905090565b6000600360009054906101000a900473ffffffffffffffffffffffffffffffffffffffff1673ffffffffffffffffffffffffffffffffffffffff163373ffffffffffffffffffffffffffffffffffffffff1614610407576040517f08c379a000000000000000000000000000000000000000000000000000000000815260040180806020018281038252602b815260200180611414602b913960400191505060405180910390fd5b8160068190555060019050919050565b60008060006104246113ba565b60026000868152602001908152602001600020604051806060016040529081600082015481526020016001820160009054906101000a900473ffffffffffffffffffffffffffffffffffffffff1673ffffffffffffffffffffffffffffffffffffffff1673ffffffffffffffffffffffffffffffffffffffff1681526020016001820160149054906101000a900460f81b7effffffffffffffffffffffffffffffffffffffffffffffffffffffffffffff19167effffffffffffffffffffffffffffffffffffffffffffffffffffffffffffff1916815250509050806000015193508060200151925080604001519150509193909250565b60065481565b600360009054906101000a900473ffffffffffffffffffffffffffffffffffffffff1681565b600080839050600084905060008460006020811061056257fe5b1a60f81b905060008560006020811061057757fe5b1a60f81b90506004847effffffffffffffffffffffffffffffffffffffffffffffffffffffffffffff1916901c93506004847effffffffffffffffffffffffffffffffffffffffffffffffffffffffffffff1916901b93506004827effffffffffffffffffffffffffffffffffffffffffffffffffffffffffffff1916901c91506004827effffffffffffffffffffffffffffffffffffffffffffffffffffffffffffff1916901b91506004837effffffffffffffffffffffffffffffffffffffffffffffffffffffffffffff1916901b92506004837effffffffffffffffffffffffffffffffffffffffffffffffffffffffffffff1916901c92506004817effffffffffffffffffffffffffffffffffffffffffffffffffffffffffffff1916901b90506004817effffffffffffffffffffffffffffffffffffffffffffffffffffffffffffff1916901c9050837effffffffffffffffffffffffffffffffffffffffffffffffffffffffffffff1916827effffffffffffffffffffffffffffffffffffffffffffffffffffffffffffff191614801561075b5750827effffffffffffffffffffffffffffffffffffffffffffffffffffffffffffff1916817effffffffffffffffffffffffffffffffffffffffffffffffffffffffffffff1916145b1561076d57600194505050505061081d565b837effffffffffffffffffffffffffffffffffffffffffffffffffffffffffffff1916827effffffffffffffffffffffffffffffffffffffffffffffffffffffffffffff191614806108025750827effffffffffffffffffffffffffffffffffffffffffffffffffffffffffffff1916817effffffffffffffffffffffffffffffffffffffffffffffffffffffffffffff1916145b1561081457600294505050505061081d565b60009450505050505b92915050565b60008061082e6113ba565b600060015492505b600054831015610ef35760026000848152602001908152602001600020604051806060016040529081600082015481526020016001820160009054906101000a900473ffffffffffffffffffffffffffffffffffffffff1673ffffffffffffffffffffffffffffffffffffffff1673ffffffffffffffffffffffffffffffffffffffff1681526020016001820160149054906101000a900460f81b7effffffffffffffffffffffffffffffffffffffffffffffffffffffffffffff19167effffffffffffffffffffffffffffffffffffffffffffffffffffffffffffff1916815250509150600061092a83600001516110d1565b90506000600281111561093957fe5b81600281111561094557fe5b1415610dad57600061095a8460000151611121565b905061096a846040015182610548565b92506001600281111561097957fe5b83600281111561098557fe5b1415610ade576109a484602001516611c37937e0800060045401611149565b955060006004819055507f8219079e2d6c1192fb0ff7f78e6faaf5528ad6687e69749205d87bd4b156912b858560200151888760400151856000602081106109e857fe5b1a60f81b8960000151604051808781526020018673ffffffffffffffffffffffffffffffffffffffff1673ffffffffffffffffffffffffffffffffffffffff168152602001858152602001847effffffffffffffffffffffffffffffffffffffffffffffffffffffffffffff19167effffffffffffffffffffffffffffffffffffffffffffffffffffffffffffff19168152602001837effffffffffffffffffffffffffffffffffffffffffffffffffffffffffffff19167effffffffffffffffffffffffffffffffffffffffffffffffffffffffffffff19168152602001828152602001965050505050505060405180910390a15b60006002811115610aeb57fe5b836002811115610af757fe5b1415610c45576611c37937e080006004600082825401925050819055507f3b19d607433249d2ebc766ae82ca3848e9c064f1febb5147bc6e5b21d0adebc58585602001516000876040015185600060208110610b4f57fe5b1a60f81b8960000151604051808781526020018673ffffffffffffffffffffffffffffffffffffffff1673ffffffffffffffffffffffffffffffffffffffff168152602001858152602001847effffffffffffffffffffffffffffffffffffffffffffffffffffffffffffff19167effffffffffffffffffffffffffffffffffffffffffffffffffffffffffffff19168152602001837effffffffffffffffffffffffffffffffffffffffffffffffffffffffffffff19167effffffffffffffffffffffffffffffffffffffffffffffffffffffffffffff19168152602001828152602001965050505050505060405180910390a15b60016002811115610c5257fe5b836002811115610c5e57fe5b1415610dab57610c7984602001516611c37937e08000611149565b95507f72ec2e949e4fad9380f9d5db3e2ed0e71cf22c51d8d66424508bdc761a3f4b0e85856020015188876040015185600060208110610cb557fe5b1a60f81b8960000151604051808781526020018673ffffffffffffffffffffffffffffffffffffffff1673ffffffffffffffffffffffffffffffffffffffff168152602001858152602001847effffffffffffffffffffffffffffffffffffffffffffffffffffffffffffff19167effffffffffffffffffffffffffffffffffffffffffffffffffffffffffffff19168152602001837effffffffffffffffffffffffffffffffffffffffffffffffffffffffffffff19167effffffffffffffffffffffffffffffffffffffffffffffffffffffffffffff19168152602001828152602001965050505050505060405180910390a15b505b60016002811115610dba57fe5b816002811115610dc657fe5b1415610dd25750610ef3565b600280811115610dde57fe5b816002811115610dea57fe5b1415610edb57610e0583602001516611c37937e08000611149565b94507f59c0185881271a0f53d43e6ab9310091408f9e0ff9ae2512613de800f26b8de48484602001518786604001518760000151604051808681526020018573ffffffffffffffffffffffffffffffffffffffff1673ffffffffffffffffffffffffffffffffffffffff168152602001848152602001837effffffffffffffffffffffffffffffffffffffffffffffffffffffffffffff19167effffffffffffffffffffffffffffffffffffffffffffffffffffffffffffff191681526020018281526020019550505050505060405180910390a15b610ee484611212565b50508280600101935050610836565b8260018190555050505050565b60006611c37937e080003414610f7e576040517f08c379a000000000000000000000000000000000000000000000000000000000815260040180806020018281038252600e8152602001807f4e6f7420656e756f67682045544800000000000000000000000000000000000081525060200191505060405180910390fd5b610f8782611276565b610ff9576040517f08c379a000000000000000000000000000000000000000000000000000000000815260040180806020018281038252601a8152602001807f4661696c20746f206164642061206e65772042657420496e666f00000000000081525060200191505060405180910390fd5b7f100791de9f40bf2d56ffa6dc5597d2fd0b2703ea70bc7548cd74c04f5d215ab760016000540333348560034301604051808681526020018573ffffffffffffffffffffffffffffffffffffffff1673ffffffffffffffffffffffffffffffffffffffff168152602001848152602001837effffffffffffffffffffffffffffffffffffffffffffffffffffffffffffff19167effffffffffffffffffffffffffffffffffffffffffffffffffffffffffffff191681526020018281526020019550505050505060405180910390a160019050919050565b600081431180156110e55750816101000143105b156110f3576000905061111c565b814311611103576001905061111c565b61010082014310611117576002905061111c565b600290505b919050565b6000600560009054906101000a900460ff1661113f57600654611142565b81405b9050919050565b60008060009050600081840390508473ffffffffffffffffffffffffffffffffffffffff166108fc829081150290604051600060405180830381858888f1935050505015801561119d573d6000803e3d6000fd5b50600360009054906101000a900473ffffffffffffffffffffffffffffffffffffffff1673ffffffffffffffffffffffffffffffffffffffff166108fc839081150290604051600060405180830381858888f19350505050158015611206573d6000803e3d6000fd5b50809250505092915050565b6000600260008381526020019081526020016000206000808201600090556001820160006101000a81549073ffffffffffffffffffffffffffffffffffffffff02191690556001820160146101000a81549060ff0219169055505060019050919050565b60006112806113ba565b33816020019073ffffffffffffffffffffffffffffffffffffffff16908173ffffffffffffffffffffffffffffffffffffffff1681525050600343018160000181815250508281604001907effffffffffffffffffffffffffffffffffffffffffffffffffffffffffffff191690817effffffffffffffffffffffffffffffffffffffffffffffffffffffffffffff1916815250508060026000805481526020019081526020016000206000820151816000015560208201518160010160006101000a81548173ffffffffffffffffffffffffffffffffffffffff021916908373ffffffffffffffffffffffffffffffffffffffff16021790555060408201518160010160146101000a81548160ff021916908360f81c021790555090505060008081548092919060010191905055506001915050919050565b604051806060016040528060008152602001600073ffffffffffffffffffffffffffffffffffffffff16815260200160007effffffffffffffffffffffffffffffffffffffffffffffffffffffffffffff19168152509056fe4f6e6c79206f776e65722063616e207365742074686520616e7377657220666f722074657374206d6f6465a265627a7a7231582038c83d07bb3d165ea98c63d578a3456cc263f8daf476d714edd50282019acc1a64736f6c63430005100032",
  "source": "pragma solidity >=0.4.22 <0.9.0;\r\n\r\ncontract Lottery{\r\n    struct BetInfo {\r\n        uint256 answerBlockNumber;\r\n        address payable bettor;\r\n        byte challenges; //0xab\r\n        \r\n    }\r\n    uint256 private _tail;\r\n    uint256 private _head;\r\n    mapping (uint256 => BetInfo) private _bets;\r\n    address payable public owner;\r\n    uint256 constant internal BLOCK_LIMIT = 256;\r\n    uint256 constant internal BET_BLOCK_INTERVAL = 3;\r\n    uint256 constant internal BET_AMOUNT = 5 * 10 ** 15;\r\n    uint256 private _pot;\r\n\r\n    bool private mode = false; // false : test mode , true : real BlockHash\r\n    bytes32 public answerForTest;\r\n\r\n    enum BlockStatus { Checkable,NotRevealed, BlockPassed }\r\n    enum BettingResult {fail, win, draw}\r\n    event BET(uint256 index, address bettor, uint256 amount, byte challenges, uint256 answerBlockNumber);\r\n    event WIN(uint256 index, address bettor, uint256 amount, byte challenges, byte answer, uint256 answerBlockNumber);\r\n    event FAIL(uint256 index, address bettor, uint256 amount, byte challenges, byte answer, uint256 answerBlockNumber);\r\n    event DRAW(uint256 index, address bettor, uint256 amount, byte challenges, byte answer, uint256 answerBlockNumber);\r\n    event REFUND(uint256 index, address bettor, uint256 amount, byte challenges, uint256 answerBlockNumber);\r\n\r\n    constructor() public{\r\n        owner = msg.sender;\r\n\r\n    }\r\n\r\n\r\n    function getPot() public view returns (uint256 pot) {\r\n        return  _pot;\r\n\r\n    }\r\n    \r\n    /**\r\n    * @dev 배팅을 한다. 유저는 0.005 ETH 를 보내야하고 배팅을 1byte 글자를 보낸다.\r\n    * 뷰에 저장된 배팅정보는 distrubute 함수에서 해결된다.\r\n    * @param challenges 유저가 배팅하는 글자\r\n    * @return 함수가 잘 수행되었는지 확인하는 bool 값    \r\n     */\r\n    function bet(byte challenges) public payable returns (bool result){\r\n\r\n        // check Money proper ether is sent\r\n        require(msg.value == BET_AMOUNT,\"Not enuogh ETH\");\r\n\r\n        // push bet to the queue\r\n        require(pushBet(challenges),\"Fail to add a new Bet Info\");\r\n\r\n        // event log\r\n        emit BET(_tail -1,msg.sender,msg.value,challenges,block.number + BET_BLOCK_INTERVAL);\r\n\r\n\r\n        return true;\r\n\r\n\r\n    }\r\n        //save the bet to the queue\r\n\r\n        \r\n    /**\r\n    * @dev 배팅 결과값을 확인하고 팟머니 분배\r\n    * 정답 실패 : 팟머니 누적, 정답맞춤 : 팟머니 획득 , 한 글자 맞춤  : 배팅금액만 획득   \r\n     */\r\n    function distribute() public{\r\n        //head  3 4 5 6 7 8 9 10 tail >>\r\n        uint256 transferAmount;\r\n        uint256 cur;\r\n        BetInfo memory b ;\r\n        BettingResult currentBettingResult;\r\n        for(cur=_head;cur<_tail;cur++){\r\n            b= _bets[cur];\r\n            BlockStatus currentBlockStatus;\r\n\r\n            currentBlockStatus = getBlockStatus(b.answerBlockNumber);\r\n            // checkable : block.number > AnswerBlockNumber && block.number < BLOCK_LIMIT + ANswerBlockNumber 1 \r\n            if(currentBlockStatus == BlockStatus.Checkable){\r\n                bytes32 answerBlockHash = getAnswerBlockHash(b.answerBlockNumber);\r\n                currentBettingResult = isMatch(b.challenges,answerBlockHash);\r\n                // WIN , bettor gets pot\r\n                if(currentBettingResult == BettingResult.win){\r\n                    // transfer pot\r\n                    transferAmount = tranforAfterPayingFee(b.bettor, _pot + BET_AMOUNT);\r\n                    // pot = 0 \r\n                    _pot=0;\r\n                    // emit WIN \r\n                    emit WIN(cur,b.bettor,transferAmount, b.challenges,answerBlockHash[0],b.answerBlockNumber);\r\n                }\r\n                // FAIL ,  bettor's money goes pot\r\n                if(currentBettingResult == BettingResult.fail){\r\n                    // pot = pot + BET_AMOUNT\r\n                    _pot += BET_AMOUNT;\r\n                    emit FAIL(cur,b.bettor,0, b.challenges,answerBlockHash[0],b.answerBlockNumber);\r\n                    //emit fail \r\n\r\n\r\n                }\r\n                // DRAW,   retund bettor' money\r\n                if(currentBettingResult == BettingResult.win){\r\n                    // transfer only bet AMOUNT\r\n                    transferAmount = tranforAfterPayingFee(b.bettor, BET_AMOUNT);\r\n                    // emit DRAW\r\n                    emit DRAW(cur,b.bettor,transferAmount, b.challenges,answerBlockHash[0],b.answerBlockNumber);\r\n\r\n                }\r\n            }\r\n\r\n            // No Revealed: block.number <=AnswerBlockNumber  2 \r\n            if(currentBlockStatus == BlockStatus.NotRevealed){\r\n              break;\r\n            }\r\n\r\n            // Block Limit Passed : block.number >= AnswerBlockNumber + BLOCK_LIMIT  3    \r\n            if(currentBlockStatus == BlockStatus.BlockPassed){\r\n                // refund\r\n                transferAmount = tranforAfterPayingFee(b.bettor, BET_AMOUNT);\r\n                // emit refund\r\n                emit REFUND(cur,b.bettor,transferAmount, b.challenges,b.answerBlockNumber);\r\n            }\r\n             popBet(cur);\r\n             // check ther answer\r\n        }\r\n        _head = cur;\r\n\r\n    }\r\n    function tranforAfterPayingFee(address payable addr , uint256 amount) internal returns (uint256){\r\n        \r\n    //    uint256 fee=  amount / 100 ;\r\n        uint256 fee=  0;\r\n        uint256 amountWithoutFee = amount - fee ;\r\n        // transfer to addr\r\n        addr.transfer(amountWithoutFee);\r\n        //transfer to owner\r\n        owner.transfer(fee);\r\n\r\n        // call, send, transfer  돈 전송 방식\r\n        return amountWithoutFee;\r\n    }\r\n    function setAnswerForTest(bytes32 answer)public  returns (bool result){\r\n        require(msg.sender == owner , \"Only owner can set the answer for test mode\");\r\n        answerForTest = answer;\r\n        return true;\r\n    }\r\n    function getAnswerBlockHash(uint256 answerBlockNumber) internal view returns (bytes32 answer){\r\n        return mode ? blockhash(answerBlockNumber) : answerForTest;\r\n\r\n    }\r\n    /**\r\n    * @dev 배팅글자와 정답 확인\r\n    * @param challenges; 배팅 글자\r\n    * @param answer 블락해쉬\r\n    * @return 정답결과        \r\n     */\r\n    function isMatch(byte challenges, bytes32 answer) public pure returns (BettingResult){\r\n        //challenges 0xab\r\n        // answer 0xab.........ff 32 bytes\r\n        \r\n        byte c1 = challenges;\r\n        byte c2 = challenges;\r\n\r\n        byte a1 = answer[0];\r\n        byte a2 = answer[0];\r\n\r\n        // Get first number\r\n        c1 = c1 >> 4; //oxab ->0x0a\r\n        c1 = c1 << 4; //ox0a ->0xa0\r\n\r\n        a1 = a1 >>4;\r\n        a1 = a1 <<4;\r\n\r\n        // Get Second Number;\r\n        c2 = c2<<4; // 0xab -> 0xb0\r\n        c2 = c2>>4; // 0xb0 -> 0x0b\r\n\r\n        a2 = a2<<4;\r\n        a2 = a2>>4;\r\n\r\n        if(a1 == c1 && a2 == c2){\r\n            return BettingResult.win;\r\n\r\n        }\r\n        if(a1 == c1 || a2 == c2){\r\n            return BettingResult.draw;\r\n\r\n        }\r\n        return BettingResult.fail;\r\n\r\n    }\r\n    function getBlockStatus(uint256 answerBlockNumber ) internal view returns (BlockStatus){\r\n        if(block.number > answerBlockNumber && block.number < BLOCK_LIMIT + answerBlockNumber){\r\n            return BlockStatus.Checkable;\r\n        }\r\n        if( block.number <= answerBlockNumber){\r\n            return BlockStatus.NotRevealed;\r\n        }\r\n        if(block.number >= answerBlockNumber + BLOCK_LIMIT){\r\n            return BlockStatus.BlockPassed;\r\n        }\r\n        return BlockStatus.BlockPassed;\r\n    }\r\n    \r\n    function getBetInfo(uint256 index) public view returns (uint answerBlockNumber, address bettor, byte challenges){\r\n        BetInfo memory b= _bets[index];\r\n        answerBlockNumber = b.answerBlockNumber;\r\n        bettor =  b.bettor;\r\n        challenges = b.challenges;\r\n\r\n    }\r\n    \r\n\r\n    function pushBet(byte challenges) internal returns (bool){\r\n        BetInfo memory b;\r\n        b.bettor = msg.sender;\r\n        b.answerBlockNumber = block.number + BET_BLOCK_INTERVAL;\r\n        b.challenges = challenges;\r\n\r\n        _bets[_tail] = b;\r\n        _tail++;\r\n\r\n        return true;\r\n\r\n    }\r\n\r\n    function popBet(uint256 index) internal returns (bool){\r\n        delete _bets[index];\r\n        return true;\r\n    }\r\n}",
  "sourcePath": "C:\\Users\\lee\\Desktop\\lattery-smart-contract\\contracts\\Lottery.sol",
  "compiler": {
    "name": "solc",
    "version": "0.5.16+commit.9c3226ce.Emscripten.clang"
  },
  "schemaVersion": "3.0.23",
  "updatedAt": "2021-04-03T06:07:32.534Z",
  "devdoc": {
    "methods": {
      "bet(bytes1)": {
        "details": "배팅을 한다. 유저는 0.005 ETH 를 보내야하고 배팅을 1byte 글자를 보낸다. 뷰에 저장된 배팅정보는 distrubute 함수에서 해결된다.",
        "params": {
          "challenges": "유저가 배팅하는 글자"
        },
        "return": "함수가 잘 수행되었는지 확인하는 bool 값    "
      },
      "distribute()": {
        "details": "배팅 결과값을 확인하고 팟머니 분배 정답 실패 : 팟머니 누적, 정답맞춤 : 팟머니 획득 , 한 글자 맞춤  : 배팅금액만 획득   "
      },
      "isMatch(bytes1,bytes32)": {
        "details": "배팅글자와 정답 확인",
        "params": {
          "answer": "블락해쉬",
          "challenges": "; 배팅 글자"
        },
        "return": "정답결과        "
      }
    }
  },
  "userdoc": {
    "methods": {}
  }
}