{
  "contractName": "Lottery",
  "abi": [
    {
      "inputs": [],
      "payable": false,
      "stateMutability": "nonpayable",
      "type": "constructor"
    },
    {
      "anonymous": false,
      "inputs": [
        {
          "indexed": false,
          "internalType": "uint256",
          "name": "index",
          "type": "uint256"
        },
        {
          "indexed": false,
          "internalType": "address",
          "name": "bettor",
          "type": "address"
        },
        {
          "indexed": false,
          "internalType": "uint256",
          "name": "amount",
          "type": "uint256"
        },
        {
          "indexed": false,
          "internalType": "bytes1",
          "name": "challenges",
          "type": "bytes1"
        },
        {
          "indexed": false,
          "internalType": "uint256",
          "name": "answerBlockNumber",
          "type": "uint256"
        }
      ],
      "name": "BET",
      "type": "event"
    },
    {
      "constant": true,
      "inputs": [],
      "name": "owner",
      "outputs": [
        {
          "internalType": "address",
          "name": "",
          "type": "address"
        }
      ],
      "payable": false,
      "stateMutability": "view",
      "type": "function"
    },
    {
      "constant": true,
      "inputs": [],
      "name": "getPot",
      "outputs": [
        {
          "internalType": "uint256",
          "name": "pot",
          "type": "uint256"
        }
      ],
      "payable": false,
      "stateMutability": "view",
      "type": "function"
    },
    {
      "constant": false,
      "inputs": [
        {
          "internalType": "bytes1",
          "name": "challenges",
          "type": "bytes1"
        }
      ],
      "name": "bet",
      "outputs": [
        {
          "internalType": "bool",
          "name": "result",
          "type": "bool"
        }
      ],
      "payable": true,
      "stateMutability": "payable",
      "type": "function"
    },
    {
      "constant": false,
      "inputs": [],
      "name": "distribute",
      "outputs": [],
      "payable": false,
      "stateMutability": "nonpayable",
      "type": "function"
    },
    {
      "constant": true,
      "inputs": [
        {
          "internalType": "bytes1",
          "name": "challenges",
          "type": "bytes1"
        },
        {
          "internalType": "bytes32",
          "name": "answer",
          "type": "bytes32"
        }
      ],
      "name": "isMatch",
      "outputs": [
        {
          "internalType": "enum Lottery.BettingResult",
          "name": "",
          "type": "uint8"
        }
      ],
      "payable": false,
      "stateMutability": "pure",
      "type": "function"
    },
    {
      "constant": true,
      "inputs": [
        {
          "internalType": "uint256",
          "name": "index",
          "type": "uint256"
        }
      ],
      "name": "getBetInfo",
      "outputs": [
        {
          "internalType": "uint256",
          "name": "answerBlockNumber",
          "type": "uint256"
        },
        {
          "internalType": "address",
          "name": "bettor",
          "type": "address"
        },
        {
          "internalType": "bytes1",
          "name": "challenges",
          "type": "bytes1"
        }
      ],
      "payable": false,
      "stateMutability": "view",
      "type": "function"
    }
  ],
  "bytecode": "0x608060405234801561001057600080fd5b5033600360006101000a81548173ffffffffffffffffffffffffffffffffffffffff021916908373ffffffffffffffffffffffffffffffffffffffff160217905550610c94806100616000396000f3fe6080604052600436106100555760003560e01c8063403c9fa81461005a57806379141f80146100855780638da5cb5b1461015257806399a167d7146101a9578063e4fc6b6d14610232578063f4b46f5b14610249575b600080fd5b34801561006657600080fd5b5061006f6102b1565b6040518082815260200191505060405180910390f35b34801561009157600080fd5b506100be600480360360208110156100a857600080fd5b81019080803590602001909291905050506102bb565b604051808481526020018373ffffffffffffffffffffffffffffffffffffffff1673ffffffffffffffffffffffffffffffffffffffff168152602001827effffffffffffffffffffffffffffffffffffffffffffffffffffffffffffff19167effffffffffffffffffffffffffffffffffffffffffffffffffffffffffffff19168152602001935050505060405180910390f35b34801561015e57600080fd5b506101676103c0565b604051808273ffffffffffffffffffffffffffffffffffffffff1673ffffffffffffffffffffffffffffffffffffffff16815260200191505060405180910390f35b3480156101b557600080fd5b5061020e600480360360408110156101cc57600080fd5b8101908080357effffffffffffffffffffffffffffffffffffffffffffffffffffffffffffff19169060200190929190803590602001909291905050506103e6565b6040518082600281111561021e57fe5b60ff16815260200191505060405180910390f35b34801561023e57600080fd5b506102476106c1565b005b6102976004803603602081101561025f57600080fd5b8101908080357effffffffffffffffffffffffffffffffffffffffffffffffffffffffffffff1916906020019092919050505061083d565b604051808215151515815260200191505060405180910390f35b6000600454905090565b60008060006102c8610c06565b60026000868152602001908152602001600020604051806060016040529081600082015481526020016001820160009054906101000a900473ffffffffffffffffffffffffffffffffffffffff1673ffffffffffffffffffffffffffffffffffffffff1673ffffffffffffffffffffffffffffffffffffffff1681526020016001820160149054906101000a900460f81b7effffffffffffffffffffffffffffffffffffffffffffffffffffffffffffff19167effffffffffffffffffffffffffffffffffffffffffffffffffffffffffffff1916815250509050806000015193508060200151925080604001519150509193909250565b600360009054906101000a900473ffffffffffffffffffffffffffffffffffffffff1681565b600080839050600084905060008460006020811061040057fe5b1a60f81b905060008560006020811061041557fe5b1a60f81b90506004847effffffffffffffffffffffffffffffffffffffffffffffffffffffffffffff1916901c93506004847effffffffffffffffffffffffffffffffffffffffffffffffffffffffffffff1916901b93506004827effffffffffffffffffffffffffffffffffffffffffffffffffffffffffffff1916901c91506004827effffffffffffffffffffffffffffffffffffffffffffffffffffffffffffff1916901b91506004837effffffffffffffffffffffffffffffffffffffffffffffffffffffffffffff1916901b92506004837effffffffffffffffffffffffffffffffffffffffffffffffffffffffffffff1916901c92506004817effffffffffffffffffffffffffffffffffffffffffffffffffffffffffffff1916901b90506004817effffffffffffffffffffffffffffffffffffffffffffffffffffffffffffff1916901c9050837effffffffffffffffffffffffffffffffffffffffffffffffffffffffffffff1916827effffffffffffffffffffffffffffffffffffffffffffffffffffffffffffff19161480156105f95750827effffffffffffffffffffffffffffffffffffffffffffffffffffffffffffff1916817effffffffffffffffffffffffffffffffffffffffffffffffffffffffffffff1916145b1561060b5760019450505050506106bb565b837effffffffffffffffffffffffffffffffffffffffffffffffffffffffffffff1916827effffffffffffffffffffffffffffffffffffffffffffffffffffffffffffff191614806106a05750827effffffffffffffffffffffffffffffffffffffffffffffffffffffffffffff1916817effffffffffffffffffffffffffffffffffffffffffffffffffffffffffffff1916145b156106b25760029450505050506106bb565b60009450505050505b92915050565b60006106cb610c06565b60015491505b6000548210156108395760026000838152602001908152602001600020604051806060016040529081600082015481526020016001820160009054906101000a900473ffffffffffffffffffffffffffffffffffffffff1673ffffffffffffffffffffffffffffffffffffffff1673ffffffffffffffffffffffffffffffffffffffff1681526020016001820160149054906101000a900460f81b7effffffffffffffffffffffffffffffffffffffffffffffffffffffffffffff19167effffffffffffffffffffffffffffffffffffffffffffffffffffffffffffff191681525050905060006107c58260000151610a0e565b9050600060028111156107d457fe5b8160028111156107e057fe5b5050600160028111156107ef57fe5b8160028111156107fb57fe5b14156108075750610839565b60028081111561081357fe5b81600281111561081f57fe5b505061082a83610a5e565b505081806001019250506106d1565b5050565b60006611c37937e0800034146108bb576040517f08c379a000000000000000000000000000000000000000000000000000000000815260040180806020018281038252600e8152602001807f4e6f7420656e756f67682045544800000000000000000000000000000000000081525060200191505060405180910390fd5b6108c482610ac2565b610936576040517f08c379a000000000000000000000000000000000000000000000000000000000815260040180806020018281038252601a8152602001807f4661696c20746f206164642061206e65772042657420496e666f00000000000081525060200191505060405180910390fd5b7f100791de9f40bf2d56ffa6dc5597d2fd0b2703ea70bc7548cd74c04f5d215ab760016000540333348560034301604051808681526020018573ffffffffffffffffffffffffffffffffffffffff1673ffffffffffffffffffffffffffffffffffffffff168152602001848152602001837effffffffffffffffffffffffffffffffffffffffffffffffffffffffffffff19167effffffffffffffffffffffffffffffffffffffffffffffffffffffffffffff191681526020018281526020019550505050505060405180910390a160019050919050565b60008143118015610a225750816101000143105b15610a305760009050610a59565b814311610a405760019050610a59565b61010082014310610a545760029050610a59565b600290505b919050565b6000600260008381526020019081526020016000206000808201600090556001820160006101000a81549073ffffffffffffffffffffffffffffffffffffffff02191690556001820160146101000a81549060ff0219169055505060019050919050565b6000610acc610c06565b33816020019073ffffffffffffffffffffffffffffffffffffffff16908173ffffffffffffffffffffffffffffffffffffffff1681525050600343018160000181815250508281604001907effffffffffffffffffffffffffffffffffffffffffffffffffffffffffffff191690817effffffffffffffffffffffffffffffffffffffffffffffffffffffffffffff1916815250508060026000805481526020019081526020016000206000820151816000015560208201518160010160006101000a81548173ffffffffffffffffffffffffffffffffffffffff021916908373ffffffffffffffffffffffffffffffffffffffff16021790555060408201518160010160146101000a81548160ff021916908360f81c021790555090505060008081548092919060010191905055506001915050919050565b604051806060016040528060008152602001600073ffffffffffffffffffffffffffffffffffffffff16815260200160007effffffffffffffffffffffffffffffffffffffffffffffffffffffffffffff19168152509056fea265627a7a723158207ba30a496b587e8045250f3be62c0b80c385bd15fc04c6c1ade251b25d6e901d64736f6c63430005100032",
  "source": "pragma solidity >=0.4.22 <0.9.0;\r\n\r\ncontract Lottery{\r\n    struct BetInfo {\r\n        uint256 answerBlockNumber;\r\n        address payable bettor;\r\n        byte challenges; //0xab\r\n        \r\n    }\r\n    uint256 private _tail;\r\n    uint256 private _head;\r\n    mapping (uint256 => BetInfo) private _bets;\r\n    address public owner;\r\n    uint256 constant internal BLOCK_LIMIT = 256;\r\n    uint256 constant internal BET_BLOCK_INTERVAL = 3;\r\n    uint256 constant internal BET_AMOUNT = 5 * 10 ** 15;\r\n    uint256 private _pot;\r\n\r\n\r\n    enum BlockStatus { Checkable,NotRevealed, BlockPassed }\r\n    enum BettingResult {fail, win, draw}\r\n    event BET(uint256 index, address bettor, uint256 amount, byte challenges, uint256 answerBlockNumber);\r\n\r\n    constructor() public{\r\n        owner = msg.sender;\r\n\r\n    }\r\n\r\n\r\n    function getPot() public view returns (uint256 pot) {\r\n        return  _pot;\r\n\r\n    }\r\n    \r\n    /**\r\n    * @dev 배팅을 한다. 유저는 0.005 ETH 를 보내야하고 배팅을 1byte 글자를 보낸다.\r\n    * 뷰에 저장된 배팅정보는 distrubute 함수에서 해결된다.\r\n    * @param challenges 유저가 배팅하는 글자\r\n    * @return 함수가 잘 수행되었는지 확인하는 bool 값    \r\n     */\r\n    function bet(byte challenges) public payable returns (bool result){\r\n\r\n        // check Money proper ether is sent\r\n        require(msg.value == BET_AMOUNT,\"Not enuogh ETH\");\r\n\r\n        // push bet to the queue\r\n        require(pushBet(challenges),\"Fail to add a new Bet Info\");\r\n\r\n        // event log\r\n        emit BET(_tail -1,msg.sender,msg.value,challenges,block.number + BET_BLOCK_INTERVAL);\r\n\r\n\r\n        return true;\r\n\r\n\r\n    }\r\n        //save the bet to the queue\r\n\r\n    //distribute\r\n    function distribute() public{\r\n        //head  3 4 5 6 7 8 9 10 tail >>\r\n\r\n        uint256 cur;\r\n        BetInfo memory b ;\r\n        for(cur=_head;cur<_tail;cur++){\r\n            b= _bets[cur];\r\n            BlockStatus currentBlockStatus;\r\n\r\n            currentBlockStatus = getBlockStatus(b.answerBlockNumber);\r\n            // checkable : block.number > AnswerBlockNumber && block.number < BLOCK_LIMIT + ANswerBlockNumber 1 \r\n            if(currentBlockStatus == BlockStatus.Checkable){\r\n                // WIN , bettor gets pot\r\n\r\n                // FAIL ,  bettor's money goes pot\r\n\r\n                // DRAW,   retund bettor' money\r\n            }\r\n\r\n            // No Revealed: block.number <=AnswerBlockNumber  2 \r\n            if(currentBlockStatus == BlockStatus.NotRevealed){\r\n              break;\r\n            }\r\n\r\n            // Block Limit Passed : block.number >= AnswerBlockNumber + BLOCK_LIMIT  3    \r\n            if(currentBlockStatus == BlockStatus.BlockPassed){\r\n                // refund\r\n                // emit refund\r\n            }\r\n             popBet(cur);\r\n             // check ther answer\r\n        }\r\n\r\n    }\r\n    /**\r\n    * @dev 배팅글자와 정답 확인\r\n    * @param challenges; 배팅 글자\r\n    * @param answer 블락해쉬\r\n    * @return 정답결과        \r\n     */\r\n    function isMatch(byte challenges, bytes32 answer) public pure returns (BettingResult){\r\n        //challenges 0xab\r\n        // answer 0xab.........ff 32 bytes\r\n        \r\n        byte c1 = challenges;\r\n        byte c2 = challenges;\r\n\r\n        byte a1 = answer[0];\r\n        byte a2 = answer[0];\r\n\r\n        // Get first number\r\n        c1 = c1 >> 4; //oxab ->0x0a\r\n        c1 = c1 << 4; //ox0a ->0xa0\r\n\r\n        a1 = a1 >>4;\r\n        a1 = a1 <<4;\r\n\r\n        // Get Second Number;\r\n        c2 = c2<<4; // 0xab -> 0xb0\r\n        c2 = c2>>4; // 0xb0 -> 0x0b\r\n\r\n        a2 = a2<<4;\r\n        a2 = a2>>4;\r\n\r\n        if(a1 == c1 && a2 == c2){\r\n            return BettingResult.win;\r\n\r\n        }\r\n        if(a1 == c1 || a2 == c2){\r\n            return BettingResult.draw;\r\n\r\n        }\r\n        return BettingResult.fail;\r\n\r\n    }\r\n    function getBlockStatus(uint256 answerBlockNumber ) internal view returns (BlockStatus){\r\n        if(block.number > answerBlockNumber && block.number < BLOCK_LIMIT + answerBlockNumber){\r\n            return BlockStatus.Checkable;\r\n        }\r\n        if( block.number <= answerBlockNumber){\r\n            return BlockStatus.NotRevealed;\r\n        }\r\n        if(block.number >= answerBlockNumber + BLOCK_LIMIT){\r\n            return BlockStatus.BlockPassed;\r\n        }\r\n        return BlockStatus.BlockPassed;\r\n    }\r\n    \r\n    function getBetInfo(uint256 index) public view returns (uint answerBlockNumber, address bettor, byte challenges){\r\n        BetInfo memory b= _bets[index];\r\n        answerBlockNumber = b.answerBlockNumber;\r\n        bettor =  b.bettor;\r\n        challenges = b.challenges;\r\n\r\n    }\r\n    \r\n\r\n    function pushBet(byte challenges) internal returns (bool){\r\n        BetInfo memory b;\r\n        b.bettor = msg.sender;\r\n        b.answerBlockNumber = block.number + BET_BLOCK_INTERVAL;\r\n        b.challenges = challenges;\r\n\r\n        _bets[_tail] = b;\r\n        _tail++;\r\n\r\n        return true;\r\n\r\n    }\r\n\r\n    function popBet(uint256 index) internal returns (bool){\r\n        delete _bets[index];\r\n        return true;\r\n    }\r\n}",
  "sourcePath": "C:\\Users\\lee\\Desktop\\lattery-smart-contract\\contracts\\Lottery.sol",
  "compiler": {
    "name": "solc",
    "version": "0.5.16+commit.9c3226ce.Emscripten.clang"
  },
  "schemaVersion": "3.0.23",
  "updatedAt": "2021-03-31T12:08:06.319Z",
  "networkType": "ethereum",
  "devdoc": {
    "methods": {
      "bet(bytes1)": {
        "details": "배팅을 한다. 유저는 0.005 ETH 를 보내야하고 배팅을 1byte 글자를 보낸다. 뷰에 저장된 배팅정보는 distrubute 함수에서 해결된다.",
        "params": {
          "challenges": "유저가 배팅하는 글자"
        },
        "return": "함수가 잘 수행되었는지 확인하는 bool 값    "
      },
      "isMatch(bytes1,bytes32)": {
        "details": "배팅글자와 정답 확인",
        "params": {
          "answer": "블락해쉬",
          "challenges": "; 배팅 글자"
        },
        "return": "정답결과        "
      }
    }
  },
  "userdoc": {
    "methods": {}
  }
}